{
  "contractName": "Voting",
  "abi": [
    {
      "constant": true,
      "inputs": [],
      "name": "votingStart",
      "outputs": [
        {
          "name": "",
          "type": "uint256"
        }
      ],
      "payable": false,
      "stateMutability": "view",
      "type": "function",
      "signature": "0x101158af"
    },
    {
      "constant": true,
      "inputs": [
        {
          "name": "",
          "type": "uint256"
        }
      ],
      "name": "candidates",
      "outputs": [
        {
          "name": "name",
          "type": "string"
        },
        {
          "name": "voteCount",
          "type": "uint256"
        }
      ],
      "payable": false,
      "stateMutability": "view",
      "type": "function",
      "signature": "0x3477ee2e"
    },
    {
      "constant": true,
      "inputs": [],
      "name": "votingEnd",
      "outputs": [
        {
          "name": "",
          "type": "uint256"
        }
      ],
      "payable": false,
      "stateMutability": "view",
      "type": "function",
      "signature": "0x85a38635"
    },
    {
      "constant": true,
      "inputs": [
        {
          "name": "",
          "type": "address"
        }
      ],
      "name": "voters",
      "outputs": [
        {
          "name": "",
          "type": "bool"
        }
      ],
      "payable": false,
      "stateMutability": "view",
      "type": "function",
      "signature": "0xa3ec138d"
    },
    {
      "inputs": [
        {
          "name": "_candidateNames",
          "type": "string[]"
        },
        {
          "name": "_durationInMinutes",
          "type": "uint256"
        }
      ],
      "payable": false,
      "stateMutability": "nonpayable",
      "type": "constructor",
      "signature": "constructor"
    },
    {
      "constant": false,
      "inputs": [
        {
          "name": "_name",
          "type": "string"
        }
      ],
      "name": "addCandidate",
      "outputs": [],
      "payable": false,
      "stateMutability": "nonpayable",
      "type": "function",
      "signature": "0x462e91ec"
    },
    {
      "constant": false,
      "inputs": [
        {
          "name": "_candidateIndex",
          "type": "uint256"
        }
      ],
      "name": "vote",
      "outputs": [],
      "payable": false,
      "stateMutability": "nonpayable",
      "type": "function",
      "signature": "0x0121b93f"
    },
    {
      "constant": true,
      "inputs": [],
      "name": "getAllVotesOfCandiates",
      "outputs": [
        {
          "components": [
            {
              "name": "name",
              "type": "string"
            },
            {
              "name": "voteCount",
              "type": "uint256"
            }
          ],
          "name": "",
          "type": "tuple[]"
        }
      ],
      "payable": false,
      "stateMutability": "view",
      "type": "function",
      "signature": "0x4d6bda5f"
    },
    {
      "constant": true,
      "inputs": [],
      "name": "getVotingStatus",
      "outputs": [
        {
          "name": "",
          "type": "bool"
        }
      ],
      "payable": false,
      "stateMutability": "view",
      "type": "function",
      "signature": "0x581c281c"
    },
    {
      "constant": true,
      "inputs": [],
      "name": "getRemainingTime",
      "outputs": [
        {
          "name": "",
          "type": "uint256"
        }
      ],
      "payable": false,
      "stateMutability": "view",
      "type": "function",
      "signature": "0xefb98bcf"
    }
  ],
  "bytecode": "0x60806040523480156200001157600080fd5b50604051620010a8380380620010a88339810180604052620000379190810190620002db565b60008090505b8251811015620000dc576000604080519081016040528085848151811015156200006357fe5b9060200190602002015181526020016000815250908060018154018082558091505090600182039060005260206000209060020201600090919290919091506000820151816000019080519060200190620000c092919062000139565b506020820151816001015550505080806001019150506200003d565b5033600160006101000a81548173ffffffffffffffffffffffffffffffffffffffff021916908373ffffffffffffffffffffffffffffffffffffffff16021790555042600381905550603c810242016004819055505050620003f9565b828054600181600116156101000203166002900490600052602060002090601f016020900481019282601f106200017c57805160ff1916838001178555620001ad565b82800160010185558215620001ad579182015b82811115620001ac5782518255916020019190600101906200018f565b5b509050620001bc9190620001c0565b5090565b620001e591905b80821115620001e1576000816000905550600101620001c7565b5090565b90565b600082601f8301121515620001fc57600080fd5b8151620002136200020d8262000363565b62000335565b9150818183526020840193506020810190508360005b838110156200025d578151860162000242888262000267565b84526020840193506020830192505060018101905062000229565b5050505092915050565b600082601f83011215156200027b57600080fd5b8151620002926200028c826200038c565b62000335565b91508082526020830160208301858383011115620002af57600080fd5b620002bc838284620003c3565b50505092915050565b6000620002d38251620003b9565b905092915050565b60008060408385031215620002ef57600080fd5b600083015167ffffffffffffffff8111156200030a57600080fd5b6200031885828601620001e8565b92505060206200032b85828601620002c5565b9150509250929050565b6000604051905081810181811067ffffffffffffffff821117156200035957600080fd5b8060405250919050565b600067ffffffffffffffff8211156200037b57600080fd5b602082029050602081019050919050565b600067ffffffffffffffff821115620003a457600080fd5b601f19601f8301169050602081019050919050565b6000819050919050565b60005b83811015620003e3578082015181840152602081019050620003c6565b83811115620003f3576000848401525b50505050565b610c9f80620004096000396000f3fe608060405260043610610099576000357c0100000000000000000000000000000000000000000000000000000000900463ffffffff1680630121b93f1461009e578063101158af146100c75780633477ee2e146100f2578063462e91ec146101305780634d6bda5f14610159578063581c281c1461018457806385a38635146101af578063a3ec138d146101da578063efb98bcf14610217575b600080fd5b3480156100aa57600080fd5b506100c560048036036100c09190810190610882565b610242565b005b3480156100d357600080fd5b506100dc6103a5565b6040516100e99190610b1c565b60405180910390f35b3480156100fe57600080fd5b5061011960048036036101149190810190610882565b6103ab565b604051610127929190610a8c565b60405180910390f35b34801561013c57600080fd5b5061015760048036036101529190810190610841565b610476565b005b34801561016557600080fd5b5061016e610542565b60405161017b9190610a4f565b60405180910390f35b34801561019057600080fd5b5061019961064d565b6040516101a69190610a71565b60405180910390f35b3480156101bb57600080fd5b506101c4610667565b6040516101d19190610b1c565b60405180910390f35b3480156101e657600080fd5b5061020160048036036101fc9190810190610818565b61066d565b60405161020e9190610a71565b60405180910390f35b34801561022357600080fd5b5061022c61068d565b6040516102399190610b1c565b60405180910390f35b600260003373ffffffffffffffffffffffffffffffffffffffff1673ffffffffffffffffffffffffffffffffffffffff16815260200190815260200160002060009054906101000a900460ff161515156102d1576040517f08c379a00000000000000000000000000000000000000000000000000000000081526004016102c890610abc565b60405180910390fd5b6000805490508110151561031a576040517f08c379a000000000000000000000000000000000000000000000000000000000815260040161031190610adc565b60405180910390fd5b60008181548110151561032957fe5b9060005260206000209060020201600101600081548092919060010191905055506001600260003373ffffffffffffffffffffffffffffffffffffffff1673ffffffffffffffffffffffffffffffffffffffff16815260200190815260200160002060006101000a81548160ff02191690831515021790555050565b60035481565b6000818154811015156103ba57fe5b9060005260206000209060020201600091509050806000018054600181600116156101000203166002900480601f0160208091040260200160405190810160405280929190818152602001828054600181600116156101000203166002900480156104665780601f1061043b57610100808354040283529160200191610466565b820191906000526020600020905b81548152906001019060200180831161044957829003601f168201915b5050505050908060010154905082565b600160009054906101000a900473ffffffffffffffffffffffffffffffffffffffff1673ffffffffffffffffffffffffffffffffffffffff163373ffffffffffffffffffffffffffffffffffffffff161415156104d257600080fd5b6000604080519081016040528083815260200160008152509080600181540180825580915050906001820390600052602060002090600202016000909192909190915060008201518160000190805190602001906105319291906106f5565b506020820151816001015550505050565b60606000805480602002602001604051908101604052809291908181526020016000905b828210156106445783829060005260206000209060020201604080519081016040529081600082018054600181600116156101000203166002900480601f0160208091040260200160405190810160405280929190818152602001828054600181600116156101000203166002900480156106225780601f106105f757610100808354040283529160200191610622565b820191906000526020600020905b81548152906001019060200180831161060557829003601f168201915b5050505050815260200160018201548152505081526020019060010190610566565b50505050905090565b60006003544210158015610662575060045442105b905090565b60045481565b60026020528060005260406000206000915054906101000a900460ff1681565b600060035442101515156106d6576040517f08c379a00000000000000000000000000000000000000000000000000000000081526004016106cd90610afc565b60405180910390fd5b600454421015156106ea57600090506106f2565b426004540390505b90565b828054600181600116156101000203166002900490600052602060002090601f016020900481019282601f1061073657805160ff1916838001178555610764565b82800160010185558215610764579182015b82811115610763578251825591602001919060010190610748565b5b5090506107719190610775565b5090565b61079791905b8082111561079357600081600090555060010161077b565b5090565b90565b60006107a68235610bf6565b905092915050565b600082601f83011215156107c157600080fd5b81356107d46107cf82610b64565b610b37565b915080825260208301602083018583830111156107f057600080fd5b6107fb838284610c12565b50505092915050565b60006108108235610c08565b905092915050565b60006020828403121561082a57600080fd5b60006108388482850161079a565b91505092915050565b60006020828403121561085357600080fd5b600082013567ffffffffffffffff81111561086d57600080fd5b610879848285016107ae565b91505092915050565b60006020828403121561089457600080fd5b60006108a284828501610804565b91505092915050565b60006108b682610b9d565b808452602084019350836020820285016108cf85610b90565b60005b848110156109085783830388526108ea838351610a03565b92506108f582610bb3565b91506020880197506001810190506108d2565b508196508694505050505092915050565b61092281610bc0565b82525050565b600061093382610ba8565b808452610947816020860160208601610c21565b61095081610c54565b602085010191505092915050565b6000601782527f596f75206861766520616c726561647920766f7465642e0000000000000000006020830152604082019050919050565b6000601882527f496e76616c69642063616e64696461746520696e6465782e00000000000000006020830152604082019050919050565b6000601b82527f566f74696e6720686173206e6f742073746172746564207965742e00000000006020830152604082019050919050565b60006040830160008301518482036000860152610a208282610928565b9150506020830151610a356020860182610a40565b508091505092915050565b610a4981610bec565b82525050565b60006020820190508181036000830152610a6981846108ab565b905092915050565b6000602082019050610a866000830184610919565b92915050565b60006040820190508181036000830152610aa68185610928565b9050610ab56020830184610a40565b9392505050565b60006020820190508181036000830152610ad58161095e565b9050919050565b60006020820190508181036000830152610af581610995565b9050919050565b60006020820190508181036000830152610b15816109cc565b9050919050565b6000602082019050610b316000830184610a40565b92915050565b6000604051905081810181811067ffffffffffffffff82111715610b5a57600080fd5b8060405250919050565b600067ffffffffffffffff821115610b7b57600080fd5b601f19601f8301169050602081019050919050565b6000602082019050919050565b600081519050919050565b600081519050919050565b6000602082019050919050565b60008115159050919050565b600073ffffffffffffffffffffffffffffffffffffffff82169050919050565b6000819050919050565b6000610c0182610bcc565b9050919050565b6000819050919050565b82818337600083830152505050565b60005b83811015610c3f578082015181840152602081019050610c24565b83811115610c4e576000848401525b50505050565b6000601f19601f830116905091905056fea265627a7a723058209d3f87d7460e03590a8e73eccdc810394bcbfbf86e391c4d22ee769ebfe0a0dd6c6578706572696d656e74616cf50037",
  "source": "// SPDX-License-Identifier: GPL-3.0\r\npragma experimental ABIEncoderV2;\r\npragma solidity >=0.4.22 <0.9.0;\r\n// pragma solidity ^0.8.0;\r\n\r\ncontract Voting {\r\n    struct Candidate {\r\n        string name;\r\n        uint256 voteCount;\r\n    }\r\n\r\n    Candidate[] public candidates;\r\n    address owner;\r\n    mapping(address => bool) public voters;\r\n\r\n    uint256 public votingStart;\r\n    uint256 public votingEnd;\r\n\r\nconstructor(string[] memory _candidateNames, uint256 _durationInMinutes) public {\r\n    for (uint256 i = 0; i < _candidateNames.length; i++) {\r\n        candidates.push(Candidate({\r\n            name: _candidateNames[i],\r\n            voteCount: 0\r\n        }));\r\n    }\r\n    \r\n    owner = msg.sender;\r\n    votingStart = block.timestamp;\r\n    votingEnd = block.timestamp + (_durationInMinutes * 1 minutes);\r\n}\r\n\r\n    modifier onlyOwner {\r\n        require(msg.sender == owner);\r\n        _;\r\n    }\r\n\r\n    function addCandidate(string memory _name) public onlyOwner {\r\n        candidates.push(Candidate({\r\n                name: _name,\r\n                voteCount: 0\r\n        }));\r\n    }\r\n\r\n    function vote(uint256 _candidateIndex) public {\r\n        require(!voters[msg.sender], \"You have already voted.\");\r\n        require(_candidateIndex < candidates.length, \"Invalid candidate index.\");\r\n\r\n        candidates[_candidateIndex].voteCount++;\r\n        voters[msg.sender] = true;\r\n    }\r\n\r\n    function getAllVotesOfCandiates() public view returns (Candidate[] memory){\r\n        return candidates;\r\n    }\r\n\r\n    function getVotingStatus() public view returns (bool) {\r\n        return (block.timestamp >= votingStart && block.timestamp < votingEnd);\r\n    }\r\n\r\n    function getRemainingTime() public view returns (uint256) {\r\n        require(block.timestamp >= votingStart, \"Voting has not started yet.\");\r\n        if (block.timestamp >= votingEnd) {\r\n            return 0;\r\n    }\r\n        return votingEnd - block.timestamp;\r\n    }\r\n}",
  "sourcePath": "C:/Users/win10/Downloads/voting app/voting app/server/contracts/Voting.sol",
  "compiler": {
    "name": "solc",
    "version": "0.5.0+commit.1d4f565a.Emscripten.clang"
  },
  "schemaVersion": "3.0.1",
  "updatedAt": "2024-05-08T08:33:41.494Z",
  "devdoc": {
    "methods": {}
  },
  "userdoc": {
    "methods": {}
  }
}