{
  "contractName": "Voting",
  "abi": [
    {
      "constant": true,
      "inputs": [
        {
          "name": "",
          "type": "uint256"
        }
      ],
      "name": "proposals",
      "outputs": [
        {
          "name": "name",
          "type": "bytes32"
        },
        {
          "name": "voteCount",
          "type": "uint256"
        }
      ],
      "payable": false,
      "stateMutability": "view",
      "type": "function",
      "signature": "0x013cf08b"
    },
    {
      "constant": true,
      "inputs": [],
      "name": "chairperson",
      "outputs": [
        {
          "name": "",
          "type": "address"
        }
      ],
      "payable": false,
      "stateMutability": "view",
      "type": "function",
      "signature": "0x2e4176cf"
    },
    {
      "constant": true,
      "inputs": [
        {
          "name": "",
          "type": "address"
        }
      ],
      "name": "voters",
      "outputs": [
        {
          "name": "voted",
          "type": "bool"
        },
        {
          "name": "weight",
          "type": "uint256"
        },
        {
          "name": "vote",
          "type": "uint256"
        }
      ],
      "payable": false,
      "stateMutability": "view",
      "type": "function",
      "signature": "0xa3ec138d"
    },
    {
      "inputs": [
        {
          "name": "proposalNames",
          "type": "bytes32[]"
        }
      ],
      "payable": false,
      "stateMutability": "nonpayable",
      "type": "constructor",
      "signature": "constructor"
    },
    {
      "constant": false,
      "inputs": [
        {
          "name": "proposal",
          "type": "uint256"
        }
      ],
      "name": "vote",
      "outputs": [],
      "payable": false,
      "stateMutability": "nonpayable",
      "type": "function",
      "signature": "0x0121b93f"
    },
    {
      "constant": true,
      "inputs": [],
      "name": "getCandidateCount",
      "outputs": [
        {
          "name": "",
          "type": "uint256"
        }
      ],
      "payable": false,
      "stateMutability": "view",
      "type": "function",
      "signature": "0x30a56347"
    },
    {
      "constant": true,
      "inputs": [
        {
          "name": "candidateIndex",
          "type": "uint256"
        }
      ],
      "name": "getTotalVotesForCandidate",
      "outputs": [
        {
          "name": "",
          "type": "uint256"
        }
      ],
      "payable": false,
      "stateMutability": "view",
      "type": "function",
      "signature": "0x6a15cfc0"
    }
  ],
  "bytecode": "0x608060405234801561001057600080fd5b506040516106b73803806106b78339810180604052602081101561003357600080fd5b81019080805164010000000081111561004b57600080fd5b8281019050602081018481111561006157600080fd5b815185602082028301116401000000008211171561007e57600080fd5b505092919050505033600260006101000a81548173ffffffffffffffffffffffffffffffffffffffff021916908373ffffffffffffffffffffffffffffffffffffffff1602179055506001806000600260009054906101000a900473ffffffffffffffffffffffffffffffffffffffff1673ffffffffffffffffffffffffffffffffffffffff1673ffffffffffffffffffffffffffffffffffffffff1681526020019081526020016000206001018190555060008090505b81518110156101bd5760006040805190810160405280848481518110151561015a57fe5b90602001906020020151815260200160008152509080600181540180825580915050906001820390600052602060002090600202016000909192909190915060008201518160000155602082015181600101555050508080600101915050610136565b50506104e9806101ce6000396000f3fe608060405260043610610078576000357c0100000000000000000000000000000000000000000000000000000000900463ffffffff1680630121b93f1461007d578063013cf08b146100b85780632e4176cf1461010e57806330a56347146101655780636a15cfc014610190578063a3ec138d146101df575b600080fd5b34801561008957600080fd5b506100b6600480360360208110156100a057600080fd5b8101908080359060200190929190505050610256565b005b3480156100c457600080fd5b506100f1600480360360208110156100db57600080fd5b810190808035906020019092919050505061037c565b604051808381526020018281526020019250505060405180910390f35b34801561011a57600080fd5b506101236103af565b604051808273ffffffffffffffffffffffffffffffffffffffff1673ffffffffffffffffffffffffffffffffffffffff16815260200191505060405180910390f35b34801561017157600080fd5b5061017a6103d5565b6040518082815260200191505060405180910390f35b34801561019c57600080fd5b506101c9600480360360208110156101b357600080fd5b81019080803590602001909291905050506103e1565b6040518082815260200191505060405180910390f35b3480156101eb57600080fd5b5061022e6004803603602081101561020257600080fd5b81019080803573ffffffffffffffffffffffffffffffffffffffff169060200190929190505050610486565b6040518084151515158152602001838152602001828152602001935050505060405180910390f35b6000600160003373ffffffffffffffffffffffffffffffffffffffff1673ffffffffffffffffffffffffffffffffffffffff16815260200190815260200160002090508060000160009054906101000a900460ff16151515610320576040517f08c379a00000000000000000000000000000000000000000000000000000000081526004018080602001828103825260178152602001807f596f75206861766520616c726561647920766f7465642e00000000000000000081525060200191505060405180910390fd5b60018160000160006101000a81548160ff021916908315150217905550818160020181905550806001015460008381548110151561035a57fe5b9060005260206000209060020201600101600082825401925050819055505050565b60008181548110151561038b57fe5b90600052602060002090600202016000915090508060000154908060010154905082565b600260009054906101000a900473ffffffffffffffffffffffffffffffffffffffff1681565b60008080549050905090565b600080805490508210151561045e576040517f08c379a00000000000000000000000000000000000000000000000000000000081526004018080602001828103825260188152602001807f496e76616c69642063616e64696461746520696e6465782e000000000000000081525060200191505060405180910390fd5b60008281548110151561046d57fe5b9060005260206000209060020201600101549050919050565b60016020528060005260406000206000915090508060000160009054906101000a900460ff1690806001015490806002015490508356fea165627a7a723058205812ca1f971ded0a465357533a353035a370cedd59f74c88f1138464b2a1c5320029",
  "source": "// SPDX-License-Identifier: GPL-3.0\r\n\r\npragma solidity >=0.4.22 <0.9.0;\r\n\r\ncontract Voting {\r\n\r\n    struct Voter {\r\n        bool voted;\r\n        uint weight;\r\n        uint vote;\r\n    }\r\n    struct Proposal {\r\n        bytes32 name;\r\n        uint voteCount;\r\n    }\r\n\r\n    Proposal[] public proposals;\r\n    mapping(address => Voter) public voters;\r\n    address public chairperson;\r\n\r\n    constructor(bytes32[] memory proposalNames) public {\r\n        chairperson = msg.sender;\r\n        voters[chairperson].weight = 1;\r\n        for(uint i = 0; i < proposalNames.length; i++) {\r\n            proposals.push(Proposal({\r\n                name: proposalNames[i],\r\n                voteCount: 0\r\n            }));\r\n        }\r\n    }\r\n\r\n    // Function for voters to cast their votes\r\n    function vote(uint proposal) public {\r\n        Voter storage sender = voters[msg.sender];\r\n        require(!sender.voted, \"You have already voted.\");\r\n        sender.voted = true;\r\n        sender.vote = proposal;\r\n        proposals[proposal].voteCount += sender.weight;\r\n    }\r\n\r\n    // Function to get the total number of candidates\r\n    function getCandidateCount() public view returns (uint) {\r\n        return proposals.length;\r\n    }\r\n\r\n    // Function to get the total number of votes for a candidate\r\n    function getTotalVotesForCandidate(uint candidateIndex) public view returns (uint) {\r\n        require(candidateIndex < proposals.length, \"Invalid candidate index.\");\r\n        return proposals[candidateIndex].voteCount;\r\n    }\r\n}\r\n",
  "sourcePath": "C:/Users/win10/Downloads/voting app/voting app/server/contracts/Voting.sol",
  "compiler": {
    "name": "solc",
    "version": "0.5.0+commit.1d4f565a.Emscripten.clang"
  },
  "schemaVersion": "3.0.1",
  "updatedAt": "2024-05-06T05:37:36.268Z",
  "devdoc": {
    "methods": {}
  },
  "userdoc": {
    "methods": {}
  }
}